:100000000C9452030C94050A0C946F030C94E509AC
:100010000C946F030C946F030C946F030C946F0398
:100020000C946F030C946F030C946F030C946F0388
:100030000C946F030C946F030C946F030C946F0378
:100040000C94F5090C946F030C946F030C946F03DC
:100050000C946F030C946F030C946F030C946F0358
:100060000C946F030C946F030C946F030C946F0348
:100070000C946F030C946F030C946F03900C790C29
:10008000360C340C470C590C690C8C0C8C0C8C0CF9
:100090008C0C8C0C8C0C8C0C8C0C8A0C8C0C8C0CA2
:1000A0008C0C8C0C8C0C8C0C8C0C8C0C8C0C8C0C90
:1000B0008C0C8C0C8C0C8C0C8C0C8C0C900C790C8F
:1000C000360C340C470C590C690C8C0C8C0C8C0CB9
:1000D0008C0C8C0C8C0C8C0C8C0C8A0C000D080D70
:1000E000100D180D200D280D080D680F150FF10FBC
:1000F000560F560FF10FFE0FDE0FF10FCD0FF10F60
:10010000560FCD0FF10FF10F980FB70F2F151115D7
:1001100017153B1580151A151D15201523152615C5
:100120002915431546154A154D156E157715981561
:1001300050155315141571157415561559152C15A0
:100140002C153215351538157115981598150C158F
:100150005C155F15621568156B158315831583157E
:10016000831583157A157D158015E015E315111695
:10017000141617161A16251628162B162E163116B3
:10018000341637163A163D164016431646164916CB
:100190004C164F164B6579626F61726420636F6E07
:1001A0006E656374656420737563636573736675E8
:1001B0006C6C79004B6579626F6172642073656C59
:1001C000662D74657374206661696C65640045789A
:1001D0007072657373696F6E20657870656374659E
:1001E000642100457870656374656420636F6C6F8B
:1001F00072205B302E2E3132375D004F7574206FC8
:10020000662072616E676500457870656374656429
:100210002062797465205B302E2E3235355D0049C1
:100220006E76616C6964207661726961626C6520CA
:100230006E616D6500496E76616C696420636F6FF5
:100240007264696E6174657300556E6B6E6F776E64
:1002500020636F6D6D616E6400556E6B6E6F776EAF
:100260002066756E6374696F6E0050696E20492F49
:100270004F206572726F7200496E76616C696420FE
:1002800070696E205B302E2E375D0044697669738D
:10029000696F6E206279207A65726F004F706572A7
:1002A00061746F7220657870656374656400496E6F
:1002B00076616C6964206C696E65206E756D62652F
:1002C00072004A756D7020706F696E74206E6F7465
:1002D00020666F756E64005661726961626C65209C
:1002E000657870656374656400706172656E7468CA
:1002F00065736973206D697373696E6700556E6508
:1003000078706563746564206368617261637465A5
:100310007200537461636B206F766572666C6F77E1
:100320000053796E746178206572726F72004E6F3F
:10033000742079657420696D706C656D656E746587
:100340006400526967687420004C65667420004F31
:100350004B00427265616B210020627974657320E5
:10036000617661696C61626C6500206279746573A5
:1003700020524F4D002062797465732052414D0028
:1003800057656C636F6D6520746F206E73744241A6
:100390005349432076302E32000000000000000058
:1003A000000000000000000000000000000000004D
:1003B00000607E607E000000000000000000000081
:1003C0000000000000000000000000000009090912
:1003D00009607E607E000000000000000000000058
:1003E00000000000000000000000000000715151FA
:1003F00071312131210000000000000000000000E8
:10040000007A5A5A7A73535373614141617757574F
:100410007732403240000000000000000063434398
:100420006378585878644444646545456534243499
:10043000243323332300000000000000002020208C
:1004400020765656766646466674545474725252F6
:10045000723525352500000000000000006E4E4E6C
:100460006E624242626848486867474767795959EF
:1004700079365E365E00000000000000002C3C2C47
:100480003C6D4D4D6D6A4A4A6A755555753726372C
:1004900026382A382A00000000000000002C3C2CDE
:1004A0003C6B4B4B6B694949696F4F4F6F3029303B
:1004B000293928392800000000000000002E3E2EB7
:1004C0003E2F3F2F3F6C4C4C6C3B3A3B3A705050A8
:1004D000702D5F2D5F000000000000000000000094
:1004E0000027222722000000005B7B5B7B3D2B3D29
:1004F0002B000000000000000000000000000000D1
:10050000000D0D0D0D5D7D5D7D000000005C7C5CCF
:100510007C0000000000000000000000003C3C3CAB
:100520003C0000000000000000000000000000008F
:100530000008080808000000000000000031313108
:1005400031000000003434343437373737000000CE
:10055000000000000000000000303030302E2E2E51
:100560002E32323232353535353636363638383841
:10057000381B1B1B1B00000000000000002B2B2B56
:100580002B333333332D2D2D2D2A2A2A2A3939396D
:10059000390000000000000000484947C848C94C25
:1005A0004FD74CCF00535445D00054CF003EBD3CF4
:1005B000BEBEBD3CBDBC21BD00504545CB4142D374
:1005C000524EC450494E44524541C450494E415286
:1005D0004541C4004C4953D44E45D75255CE4E45A3
:1005E00058D44C45D449C6474F54CF4D504C41D9AF
:1005F0004D53544FD054454D50CF4D555349C3479B
:100600004F5355C25245545552CE52414E444F4D10
:10061000495AC5524E44534545C45253D4434CD312
:100620005245CD464FD2494E5055D4424545D05003
:1006300052494ED44C4F434154C5504F4BC5505373
:1006400045D453544FD0454EC44D45CD5045CE5062
:10065000415045D2BFA3A744454C41D9454C4953CD
:10066000D445464F524D41D44543484149CE455368
:100670004156C5454C4F41C446494C45D343464F6E
:10068000524D41D44343484149CE43534156C5435B
:100690004C4F41C450494E4449D250494E445752A0
:1006A0004954C50011241FBECFEFD0E1DEBFCDBF3E
:1006B00011E0A0E0B1E0E0E3F5E302C005900D92A7
:1006C000A633B107D9F72DE0A6E3B1E001C01D9232
:1006D000AE3BB207E1F70E945A160C94961A0C949E
:1006E0000000FF920F931F93CF93DF93EC018B01D8
:1006F000F12CFE01EF0DF11D8081882341F0B8013E
:10070000992787FD90950E945617F394F2CFDF91B9
:10071000CF911F910F91FF900895AF92BF92CF920A
:10072000DF92EF92FF920F931F93CF93DF9300D04E
:10073000CDB7DEB75C017B0197FF07C0B194A194F0
:10074000B1088DE290E00E94561700E010E08AE0C8
:10075000C82ED12CC501B6010E947A16805D69832E
:100760007A830E9421106981A62E7A81B72E0F5FAD
:100770001F4FA114B10471F70E942C10B70190E033
:100780000E9456170150110901151105A9F70F9084
:100790000F90DF91CF911F910F91FF90EF90DF901D
:1007A000CF90BF90AF9008950F931F93CF93DF9397
:1007B000EC018B01CE01FE012491222341F0219610
:1007C000FC018491B80190E00E945617F3CFDF91AD
:1007D000CF911F910F910895CF93DF93EC01BC014E
:1007E0008AE090E00E945617BE018DE090E0DF9114
:1007F000CF910C945617CF93DF93EB010E94D40353
:10080000CE01DF91CF910C94EC030F931F93CF9304
:10081000DF938C01EB01FC01808191810E948D03AB
:10082000BE0180E290E00E9456170D5F1F4FF80155
:1008300081918F018A3029F0BE0190E00E94561705
:10084000F6CFCE01DF91CF911F910F910C94EC0365
:10085000CF93E091B30DF091B40DC081C23221F07D
:10086000C73211F080E029C03196F093B40DE093C7
:10087000B30D81918C1719F08A30D9F7F3CFE0913D
:10088000B30DF091B40D80818C1789F06091BA0D91
:100890007091BB0D90E00E9456178091B30D90911E
:1008A000B40D01969093B40D8093B30DE8CF3196BB
:1008B000F093B40DE093B30D81E0CF9108951F93B1
:1008C000CF93DF93182FCAEBDDE06881798183E253
:1008D00090E00E94561768817981812F90E00E94F4
:1008E00056176881798180E290E0DF91CF911F9166
:1008F0000C9456170E94E70C9093A10D8093A00DC5
:100900008091B60D811107C0E091B30DF091B40D47
:1009100080818A3021F084E08093B60D08950E9492
:10092000361090939F0D80939E0D81E008950E9454
:10093000E70C2091B60D211107C0E091B30DF091A5
:10094000B40D20812A3021F484E08093B60D0895FF
:10095000892B11F086E0089582E00895BF92CF922E
:10096000DF92EF92FF920F931F93CF93DF930E943A
:100970004E10E091B30DF091B40DD0808FEB8D0D42
:100980008A3110F087E00FC03196F093B40DE093F8
:10099000B30D0E944E10E091B30DF091B40D808123
:1009A0008D3329F08AE08093B60D84E079C03196CA
:1009B000F093B40DE093B30D0E944E101092B60D5B
:1009C0000E94E70C7C018091B60D8111EECF8AEA7E
:1009D00095E00E94A70B811124C00E94E70C8C01B6
:1009E0008091B60D8111E1CF85EA95E00E94A70BB9
:1009F000811109C00E94E70C2091B60D2111D5CFBD
:100A0000B82EC92E03C0BB24B394C12C0E944E1033
:100A1000C091B30DD091B40D28812A3021F02A3332
:100A200011F082E0C0CF8091B60D811136C02A301E
:100A3000A1F5E091A70DF091A80D9F01265F3F4F12
:100A40004091AF0D5091B00D2417350710F483E09D
:100A5000AACF3A97F093A80DE093A70D2D2D30E083
:100A600021543048220F331FA091A20DB091A30D45
:100A7000A20FB31FED92FC9286E48083D182138390
:100A80000283B482C582D187C08780919E0D9091E8
:100A90009F0D9783868383E003C084E08093B60D27
:100AA000DF91CF911F910F91FF90EF90DF90CF904A
:100AB000BF9008951092B60D0E94E70C9093A10D7F
:100AC0008093A00D8091B60D811132C0A091B30D1D
:100AD000B091B40D8C918A3059F5E091A70DF09149
:100AE000A80DCF0106962091AF0D3091B00D821761
:100AF000930728F483E08093B60D84E00895369739
:100B0000F093A80DE093A70D87E490E09183808394
:100B1000B583A48380919E0D90919F0D93838283D2
:100B20000E94361090939F0D80939E0D81E0089552
:100B300084E08093B60D08950E944E10E091B30DAD
:100B4000F091B40D808181548A3110F087E011C09A
:100B50003196F093B40DE093B30D0E944E10E091E6
:100B6000B30DF091B40D80818A3339F08A3029F0C9
:100B700082E08093B60D84E0089580E0089520918E
:100B8000A70D3091A80DA091B30DB091B40DF9014E
:100B900011979DE0ED39F90708F057C09081963420
:100BA000D1F0973409F054C08C3099F4828193814C
:100BB00090939F0D80939E0D848195819093B40DA9
:100BC0008093B30D2A5F3F4F3093A80D2093A70D5C
:100BD00038C03696DECF8330B1F59C9141819413B5
:100BE00032C0892F90E081549048880F991FA091BE
:100BF000A20DB091A30DA80FB91F8D919C911197D3
:100C000024813581820F931F8D939C93248135819C
:100C1000232B91F0228133812817390768F08085D2
:100C200091859093B40D8093B30D868197819093B5
:100C30009F0D80939E0D05C03A96F093A80DE0930A
:100C4000A70D83E008953A96A4CF88E08093B60D6F
:100C500084E00895CF93DF93CAEBDDE0688179816A
:100C600088EC90E00E9456170E94B4086881798150
:100C700080E893E00E94FB038FE491E09093A50D40
:100C80008093A40D85E0DF91CF9108956091BA0D16
:100C90007091BB0D89EC90E00E9456170E94B40839
:100CA00083E008950E94E70C2091B60D21110BC03E
:100CB0008038910520F084E18093B60D04C00E9435
:100CC000690983E0089584E008950E94E70C20916B
:100CD000B60D21110BC08038910520F084E180937E
:100CE000B60D04C00E947E0983E0089584E0089553
:100CF000CF93DF930E94E70CEC018091B60D811138
:100D00001DC0C831D105B8F4E091B30DF091B40D18
:100D100080818C3211F082E00FC03196F093B40DD7
:100D2000E093B30D0E94E70C2091B60D211106C08F
:100D30008032910528F080E18093B60D84E005C0F3
:100D4000682F8C2F0E94930983E0DF91CF91089543
:100D5000E091B30DF091B40D80818A3381F48091DC
:100D6000BA0D9091BB0D0E94EC038091B30D909150
:100D7000B40D01969093B40D8093B30D4AC08A30A0
:100D800009F44DC00E944E100E94280481111BC01E
:100D9000E091B30DF091B40D8081823211F0873271
:100DA00021F484E08093B60D08951092B60D0E9450
:100DB000E70C2091B60D211134C06091BA0D7091ED
:100DC000BB0D0E948D030E944E10E091B30DF09177
:100DD000B40D80818C3231F43196F093B40DE093F0
:100DE000B30DD0CF8B3359F481818A3011F08A331F
:100DF00091F43196F093B40DE093B30D0AC08A30AC
:100E000011F08A3341F48091BA0D9091BB0D0E948C
:100E1000EC0383E0089582E08093B60D02C082E087
:100E2000089584E008950F931F93CF93DF930E945A
:100E3000E70CEC018091B60D811136C0CF3FD10592
:100E400009F0B0F4E091B30DF091B40D80818C32D3
:100E5000C1F43196F093B40DE093B30D0E94E70C0A
:100E60008C018091B60D81111FC0003F110510F05B
:100E700080E118C0E091B30DF091B40D80818C3207
:100E800011F082E00FC03196F093B40DE093B30DF2
:100E90000E94E70C2091B60D211106C08038910503
:100EA00028F084E18093B60D84E006C0482F602FBF
:100EB0008C2F0E94B10983E0DF91CF911F910F9198
:100EC0000895CF93C82F8A3019F48DE00E946107EE
:100ED0008091C00085FFFCCFC093C60080E090E009
:100EE000CF9108958091C00087FFFCCF8091C6000C
:100EF00090E0089520914A01211105C08FE090E013
:100F00000E947E10F7CF90913701E92FF0E0E65C68
:100F1000FE4F80819F5F90933701215020934A01BB
:100F2000903111F41092370190E00895682F80916C
:100F3000B10D9091B20D9C012F5F3F4F3093B20DD8
:100F40002093B10D0E94761980E090E00895809181
:100F5000B10D9091B20D9C012F5F3F4F3093B20DB8
:100F60002093B10D0E946E1990E0089588B94E99B2
:100F7000FECF5F9A4E9BFECF5F986EE071E08830A7
:100F800079F488E090E00E9456176EE071E080E20C
:100F900090E00E9456176EE071E088E090E003C098
:100FA000992787FD90950E94561780E090E008955C
:100FB00022982A9AEA9A539852985B9A5A9A82E00F
:100FC00084BD15BC94E697BD80936E001092B50D5C
:100FD0009BE090934B018093690010924C01E89A3A
:100FE00078940895CF93E898C4E628988EEE92E01E
:100FF0000E948910289A84EF91E00E948910C150C4
:10100000A1F7E89ACF91089590914A01903198F410
:1010100020913801E22FF0E0E65CFE4F808381E012
:10102000820F809338019F5F90934A01803129F4A9
:101030001092380108950C94F207089590913901A7
:1010400090FD84C0873751F158F4843151F118F480
:10105000823149F12AC08835F9F0893521F125C05E
:10106000803EA9F020F48A3A09F47DC01EC0803F7A
:1010700081F08C3FD1F46091BA0D7091BB0D84EB7F
:1010800091E00E94FB030E94F2070C94F207926029
:1010900068C09D7F916065C080E201C088E08927BB
:1010A00042C094605EC090615CC092FF1AC0813201
:1010B00021F481E08093B50D0895843329F49B7F5A
:1010C0009093390187E040C08B3411F48CE03CC030
:1010D0008C3111F481E038C0843209F044C082E0E0
:1010E00033C091FF23C08A3511F48DE017C08537D6
:1010F00011F484E013C0823711F485E00FC08B3601
:1011000011F480E10BC0843711F481E107C08C3603
:1011100011F481E003C0893619F482E00E940408CA
:10112000809139018D7F80933901089594FB2227A6
:1011300020F995FD2E5F94E0899FF0011124E20FC4
:10114000F11DE756FC4F84910C940408843131F072
:10115000893531F0823121F09E7F03C09A7F01C032
:101160009E7E9093390108956EE071E08BE190E0EE
:101170000E9456176EE071E08BE590E00E945617D2
:101180006EE071E080E390E00E9456176EE071E03F
:101190008DE690E00E9456176EE071E08BE190E0E2
:1011A0000E9456176EE071E08BE590E00E945617A2
:1011B0006EE071E088E490E00E9456176EE071E006
:1011C0008BE190E00E9456176EE071E08BE590E0B5
:1011D0000E9456176EE071E08AE490E00C94561776
:1011E000CF938CE191E09093B90D8093B80D9093DB
:1011F000BB0D8093BA0D10927C0087E880937A0033
:1012000080917A00806480937A0080917A0086FDD4
:10121000FCCF11B8CFEFC2B9209A289A0E94D80704
:10122000C7B95698579A5498559A1092C50085E1B7
:101230008093C40086E08093C20088E18093C1005F
:10124000CF910C94B408FF920F931F93CF93DF9329
:10125000C82FF62E6EE071E08BE190E00E945617E9
:101260006EE071E08BE590E00E9456171F92CF93DD
:101270000EE211E01F930F93CEE0D1E0DF93CF9306
:101280000E944417BE018BE390E00E9456171F9204
:10129000FF921F930F93DF93CF930E9444178DB754
:1012A0009EB70C960FB6F8949EBF0FBE8DBFBE01C1
:1012B00088E490E0DF91CF911F910F91FF900C9403
:1012C000561788B94C99FECF5D9A4C9BFECF5D981E
:1012D00008951F93CF93DF93182FCAEBDDE0688149
:1012E00079818EEC90E00E94561768817981812F78
:1012F00090E0DF91CF911F910C9456171F93CF93DD
:10130000DF93182FCAEBDDE0688179818FEC90E0E4
:101310000E94561768817981812F90E0DF91CF91EB
:101320001F910C9456170F931F93CF93DF93082FA1
:10133000162FCAEBDDE0688179818DEC90E00E9488
:10134000561768817981802F90E00E945617688136
:101350007981812F90E0DF91CF911F910F910C94B3
:101360005617EF92FF920F931F93CF93DF931F9225
:10137000CDB7DEB7082F162F8AEBE82E8DE0F82EBA
:10138000F701608171818AEC90E049830E945617D1
:10139000F70160817181802F90E00E945617F7015C
:1013A00060817181812F90E00E945617F701608162
:1013B00071814981842F90E00F90DF91CF911F912F
:1013C0000F91FF90EF900C9456171F920F920FB64B
:1013D0000F9211248F9381E08093B50DEA988F913D
:1013E0000F900FBE0F901F9018951F920F920FB67F
:1013F0000F9211248F938BE080934B0115BC8F913A
:101400000F900FBE0F901F9018951F920F920FB65E
:101410000F9211242F933F934F935F936F937F937A
:101420008F939F93AF93BF93EF93FF9399B12091C5
:101430004C0180914B0121111AC08B3011F485E0D1
:1014400085BD80914B018350883050F480913601E6
:1014500086958093360193FF03C0806880933601A0
:1014600083E08093690081E080934C0111C081503A
:1014700080934B01811107C0809136010E941E08A4
:101480008BE080934B0182E08093690010924C01C5
:10149000FF91EF91BF91AF919F918F917F916F914C
:1014A0005F914F913F912F910F900FBE0F901F9022
:1014B00018958FEC0E94610983E008958EEC0E94DC
:1014C000610983E008950E944E100E94E70C20916C
:1014D000B60D211122C08837910599F038F4CC97C8
:1014E000F1F48CEC0E94610980E014C0863991050A
:1014F00069F0843B910599F48CEC0E94610988E1C4
:1015000009C08CEC0E94610988E004C08CEC0E9448
:10151000610980E10E94610902C084E0089583E0CE
:101520000895CF93DF930E944E101092B60DE09174
:10153000B30DF091B40DC081C23231F0C73221F049
:1015400082E08093B60D26C03196F093B40DE093FF
:10155000B30DD4E009C08091B30D9091B40D019604
:101560009093B40D8093B30DE091B30DF091B40D51
:1015700080818C1709F449C0893571F489EC0E9487
:1015800061090E94E70B8091B60D882321F388EC56
:101590000E94610984E03FC08A3580F4853431F1CE
:1015A00030F4833409F1F0F4813441F32BC08E34EC
:1015B000C9F08835C9F08D3429F518C08536B1F0E9
:1015C00030F4833689F070F48136C1F21BC08E3658
:1015D00049F018F48D3651F015C0883729F0893755
:1015E00069F210C08AECCBCF8BECC9CF8DEC0E9496
:1015F00061090E94E70B8091B60D8111C4CF0E9452
:10160000FD0BC1CFD093B60DBECF3196F093B40D84
:10161000E093B30D83E0DF91CF910895CF93DF93F3
:101620001092B20D1092B10DC0E0D8E080E091E0D0
:101630000E9406178823D9F06091BA0D7091BB0DF6
:1016400020EE280F2F3538F08A3029F08D3019F030
:101650008FE390E001C090E00E94561721972097F9
:1016600029F78091BA0D9091BB0D0E94EC0382E0A6
:10167000DF91CF910895CF93DF931092B20D109226
:10168000B10DC0E0D0E060E071E080E090E00E9449
:101690005617CE018F7799278034910541F46091D8
:1016A000BA0D7091BB0D8EE290E00E945617219604
:1016B000CF3F87E0D80739F78091BA0D9091BB0DE5
:1016C0000E94EC0382E0DF91CF9108951092B20D59
:1016D0001092B10D80E091E00E94061780538A308D
:1016E00080F41092B20D1092B10D8FE491E09093BE
:1016F000A50D8093A40D8091A60D88608093A60D02
:1017000003C089E08093B60D84E00895CF93DF9302
:101710001092B20D1092B10D0E943610EC01809122
:10172000A40D9091A50D60E071E0C817D90739F0BC
:10173000CE010E9405048A81C80FD11DF0CF80E040
:1017400090E00E94561782E0DF91CF9108951F9399
:10175000CF93DF93EC0120E030E010E0FE018491B4
:10176000882381F14091B30D5091B40DFA01E20F3D
:10177000F31F8081FE019491891304C02F5F3F4FB6
:101780002196ECCFFE016491E82FF0E0E058FF4F86
:1017900070E0E617F70759F42F5F3F4F240F351F0E
:1017A0003093B40D2093B30D0E944E100BC0FE0178
:1017B0008491219687FFFBCF1F5F0E944E1020E08F
:1017C00030E0CCCF812FDF91CF911F910895E09130
:1017D000B30DF091B40DCF0101969093B40D8093A9
:1017E000B30D81819FEC980F943018F480530C94C2
:1017F000610984E08093B60D08951F93CF93DF9322
:10180000C4E0DCE04091B30D5091B40DCA010196E3
:101810009093B40D8093B30DFA0161818EEC860F25
:101820008630A8F460539A012E5F3F4F3093B40D79
:101830002093B30D828190E081549109803391050A
:1018400008F06AC0825C9F4FFC010C948E166232D5
:1018500011F0673229F45093B40D4093B30DB3C027
:1018600084E08093B60DAFC093E065C0CA010396D3
:101870009093B40D8093B30DFA018381833209F400
:1018800051C03093B40D2093B30D91E054C0CA0100
:1018900003969093B40D8093B30DFA0183818F7DED
:1018A000823409F441C03093B40D2093B30D95E018
:1018B00042C0CA0103969093B40D8093B30DFA0110
:1018C0008381833299F13093B40D2093B30D96E068
:1018D00032C0CA0103969093B40D8093B30DFA0100
:1018E0008381833229F13093B40D2093B30D98E0B6
:1018F00022C0CA0103969093B40D8093B30DFA01F0
:1019000083818F7D8234B1F03093B40D2093B30D79
:101910009CE011C09DE00FC0C093B60D90E00BC0DD
:101920009AE009C092E007C094E005C097E003C0C8
:1019300099E001C09BE0E091B30DF091B40D9F01DF
:101940002F5F3F4F3093B40D2093B30D81814FEC47
:10195000480F483010F4805303C0C093B60D80E0A8
:10196000AF014E5F5F4F5093B40D4093B30D428172
:101970004D3271F04D3321F04B3221F421E009C09A
:1019800023E007C03093B40D2093B30D20E001C0D5
:1019900022E0382F392B322BB1F09D3041F06250CC
:1019A000192F6D9F100D11241150110F01C010E956
:1019B0008150F0E42F9F800D11240E946109812F36
:1019C0000E9461091FCFDF91CF911F910895CF939E
:1019D000DF930E94A60EEC018091B60D811143C0E9
:1019E0008DEA95E00E94A70B8730E9F1482F50E07F
:1019F00047305105D0F5FA01E259FF4F0C948E168D
:101A00000E94A60E31E020E0C817D9074CF527C088
:101A10000E94A60E31E020E0C817D90709F51FC0C3
:101A20000E94A60E31E020E08C179D07CCF017C075
:101A30000E94A60E31E020E0C817D90781F410C03B
:101A40000E94A60E31E020E08C179D074CF407C0E1
:101A50000E94A60E31E020E0C817D9070CF030E054
:101A6000832F922F04C0CE0102C080E090E0DF916E
:101A7000CF910895EF92FF920F931F93CF93DF932F
:101A80001F92CDB7DEB701E010E00E944E10E0914A
:101A9000B30DF091B40D80818D3249F43196F093FD
:101AA000B40DE093B30D119501951109EECF80337C
:101AB00031F43196F093B40DE093B30DFCC09FEC7C
:101AC000980F9930E0F480E090E03AE0A091B30DF7
:101AD000B091B40DAC01349FC001359F900D11241D
:101AE000FD012191820F911DC097F093B40DE093F9
:101AF000B30D11962C9120532A3040F3DEC09FEB9A
:101B0000980F9A3108F0B5C0918191549A31B0F094
:101B100090E081549048880F991FA091A20DB09138
:101B2000A30DA80FB91F3C9111962C913196F093FB
:101B3000B40DE093B30D832F922FBFC089EB95E0D6
:101B40000E94A70B282F853011F48EE0B2C0E091DF
:101B5000B30DF091B40D8081883211F085E0A9C0F9
:101B60003196F093B40DE093B30D29830E94E70CF6
:101B70007C01E091B30DF091B40D8081298189320F
:101B800009F08DC03196F093B40DE093B30D22307F
:101B9000F9F028F4222341F0213099F06AC0233073
:101BA000E9F02430D1F165C050E5E5165CE0F506BA
:101BB00014F083E17EC0F701E15BFE4F808190E08D
:101BC0007CC0C701F7FE79C091958195910975C0D8
:101BD0000E94F616B7010E947A166FC088E0E816D8
:101BE000F10410F08CE065C081E090E002C0880F45
:101BF000991FEA94E2F721B130E028233923232BFF
:101C000029F520B130E02823392351E040E0232B8F
:101C100009F450E0852F942F50C0A8E0EA16F10493
:101C200008F7E0927C0021E030E002C0220F331F71
:101C3000EA94E2F742B192B1822F8095892382B96A
:101C400081B190E082239323892B11F08DE031C084
:101C500080917A00806480937A0080917A0086FD7A
:101C6000FCCF42B980917800909179009695879544
:101C700024C0E091B30DF091B40D80818832C1F49D
:101C80003196F093B40DE093B30D0E94E70C9C01E4
:101C9000E091B30DF091B40D8081893211F086E0AE
:101CA00008C03196F093B40DE093B30DC90105C09F
:101CB00085E18093B60D80E090E0FC010E9FC001AD
:101CC0000F9F900D1E9F900D11240F90DF91CF91CB
:101CD0001F910F91FF90EF9008951F93CF93DF9383
:101CE0000E943A0DEC010E944E101BE0E091B30DF2
:101CF000F091B40D80818A3281F43196F093B40D65
:101D0000E093B30D0E943A0D9E01289FE001299FA8
:101D1000D00D389FD00D1124E9CF8F3291F4319638
:101D2000F093B40DE093B30D0E943A0DBC010097FF
:101D300029F0CE010E947A16EB01D8CF1093B60D90
:101D4000D5CFCE01DF91CF911F910895CF93DF932F
:101D5000E091B30DF091B40D80818D3231F08B3272
:101D600021F00E946D0EEC0102C0C0E0D0E0E091D5
:101D7000B30DF091B40D80818D3251F43196F09312
:101D8000B40DE093B30D0E946D0EC81BD90BEFCFBD
:101D90008B3251F43196F093B40DE093B30D0E9461
:101DA0006D0EC80FD91FE3CFCE01DF91CF910895FB
:101DB000EF92FF921F93CF93DF93C091A40DD09128
:101DC000A50D2296D093B40DC093B30D8091A60DAE
:101DD00083FD10C010EE6AC0E091B30DF091B40D18
:101DE00080838091B30D9091B40D01969093B40DC2
:101DF0008093B30D80E091E00E9406179C01332789
:101E00002A30310559F02D30310541F0232B21F7CF
:101E10008091A60D877F8093A60D0DC1E091B30D33
:101E2000F091B40D8AE0808306C18091B30D90914A
:101E3000B40D8C179D07D0F56091BA0D7091BB0D54
:101E400082E090E00E9456174091A40D5091A50D9C
:101E5000CE01841B950B9EEFF92EF80EEF2CE29429
:101E6000E69427E0E2222091B30D3091B40D241BBB
:101E7000350B22502295269527706091BA0D7091EE
:101E8000BB0D8E2D821B90E001960E94561760912B
:101E9000BA0D7091BB0D8F2DE19E800D112490E045
:101EA0000E945617D093B40DC093B30D8091B80D16
:101EB0009091B90D0E9406177C019927FC0131977A
:101EC000E131F10508F08DC0EB58FF4F0C948E16F0
:101ED0008091A40D9091A50D02962091B30D3091A3
:101EE000B40D8217930710F76091BA0D7091BB0D76
:101EF00081E090E00E9456176091BA0D7091BB0D81
:101F00008091B30D9091B40D2091A40D3091A50D49
:101F1000821B930B825082958695877090E0019684
:101F20000E9456178091A40D9091A50D02961AC09B
:101F30008091A40D9091A50D02962091B30D309142
:101F4000B40D8217930708F059C06091BA0D7091D3
:101F5000BB0D80E190E00E9456178091B30D9091E7
:101F6000B40D01979093B40D8093B30D9FCF8091E2
:101F7000B30D9091B40D8C179D0708F03FC00196EA
:101F80009093B40D8093B30D6091BA0D7091BB0D19
:101F900081E190E00E94561789CFD093B40DC09391
:101FA000B30D8AE088838091BA0D9091BB0DDF91CB
:101FB000CF911F91FF90EF900C94EC038091A40DB2
:101FC0009091A50D02962091B30D3091B40D82171A
:101FD0009307A0F46091BA0D7091BB0D88E090E07A
:101FE000BACF2091A20D3091A30D2250310940911A
:101FF000B30D5091B40D4217530719F40E94F20724
:1020000055CF6091BA0D7091BB0D0E945617E091AB
:10201000B30DF091B40DE0828091B30D9091B40DA9
:1020200001969093B40D8093B30DC817D90708F0AB
:102030003DCFEC013BCFDF91CF911F91FF90EF900F
:102040000895E091A70DF091A80D3197F093A80D98
:10205000E093A70D80830895E091A70DF091A80D5E
:102060008191F093A80DE093A70D08952091A40D00
:102070003091A50D4091A00D5091A10D8FE491E0FC
:102080008217930751F0FC01608171816417750715
:1020900020F46281860F911DF3CF0895E091B30D76
:1020A000F091B40D8081803231F43196F093B40D0B
:1020B000E093B30DF3CF8930C1F30895E091A40DFF
:1020C000F091A50D329690E080818A30B1F08917A9
:1020D00069F0823269F0873269F091110CC02FE902
:1020E000280F2A3140F48052808305C090E003C05D
:1020F00092E201C097E23196E7CF0895009741F050
:10210000E7E8F3E13197F1F700C000000197F6CF5F
:102110000895009731F026E02A95F1F700C0019765
:10212000F8CF08958091B50D811104C08091C6004B
:10213000833021F41092B50D81E0089580E0089578
:10214000FC0120812D3219F4019641E001C040E0EC
:10215000FC0180E090E05AE0219130ED320F3A30FE
:1021600060F4BC01569FC001579F900D112430E0D0
:1021700020533109820F931FEFCF442319F091951B
:10218000819591090895AF92BF92CF92DF92EF921D
:10219000FF920F931F93CF93DF930E944E10E09115
:1021A000B30DF091B40DF0808FEB8F0D8A3110F0EC
:1021B00087E015C0D090A20DE090A30D3196F0936A
:1021C000B40DE093B30D0E944E10E091B30DF09169
:1021D000B40D80818A3039F08A3329F082E080930F
:1021E000B60D84E07CC01092A90DEA9AA12CC9EA30
:1021F000DDE08AE0B82E8091B80D9091B90D0E9473
:1022000006178C01C82E8091B50D813009F466C087
:10221000C80199278A309105E1F024F488309105AE
:10222000D1F02CC08D309105A1F08D32910531F5A2
:10223000A1103AC06091BA0D7091BB0D8DE290E093
:102240000E945617FE0101931982EF01AA24A3945C
:102250002BC0B88229C02DE0C93AD20709F018F482
:102260000E94F20721C06091BA0D7091BB0D88E009
:1022700090E00E9456172197AA9416C020ED200FD7
:102280002A3090F425E02A1560F06091BA0D709123
:10229000BB0D0E945617FE010193A3941982EF0112
:1022A00006C00E94F20703C08AE0C81619F02DE0AC
:1022B000C212A1CF8091BA0D9091BB0D0E94EC0388
:1022C00089EA9DE00E94A010ED2DFE2DEF0DF11D7D
:1022D000EF0DF11DE258F1099183808383E0DF91D6
:1022E000CF911F910F91FF90EF90DF90CF90BF9013
:1022F000AF9008951F93CF93DF93E091B30DF091CA
:10230000B40DC0818FEB8C0F8A3198F41091A20D1F
:10231000D091A30DCF0101969093B40D8093B30D8E
:10232000818181548A3138F43296F093B40DE09370
:10233000B30D8FE020C00E944E10E091B30DF091DC
:10234000B40D80818D33A9F73196F093B40DE093ED
:10235000B30D0E944E100E94E70C2091B60D211182
:1023600019C0E091B30DF091B40D20812A3031F005
:102370002A3321F082E08093B60D0CC0E12FFD2FAF
:10238000EC0FF11DEC0FF11DE258F10991838083F0
:1023900083E001C084E0DF91CF911F910895CF9336
:1023A000DF930E94E70CEC018091B60D81112EC0E5
:1023B000C0358CE0D80714F083E126C00E944E108F
:1023C000E091B30DF091B40D80818C32E1F431963F
:1023D000F093B40DE093B30D0E944E100E94E70CF1
:1023E0002091B60D211112C08F3F910519F010F008
:1023F00082E10AC0E091B30DF091B40D20812A3042
:1024000039F02A3329F082E08093B60D84E004C0CD
:10241000C15BDE4F888383E0DF91CF910895CF9336
:10242000DF930E9435139093A10D8093A00DE0914E
:10243000B30DF091B40D80818A3021F084E0809357
:10244000B60D15C00E943610EC018091A40D90913C
:10245000A50DC817D90759F06091BA0D7091BB0D41
:10246000CE010E9405048A81C80FD11DEECF84E001
:10247000DF91CF910895CF93DF93CAEBDDE06881C0
:1024800079818091A20D9091A30D2091A40D30919E
:10249000A50D821B930B0E948D036881798185E7CE
:1024A00093E00E94FB036881798180E098E00E94BC
:1024B0008D03688179818AE693E00E94FB0383E0C3
:1024C000DF91CF9108958091B20090E00E94FB16B9
:1024D00083E008951092B60D0E94E70C2091B60D8E
:1024E000211104C00E94FB1683E0089584E0089542
:1024F000CF93DF93EA9ACAEBDDE06881798180EDC2
:1025000090E00E9456176881798182ED90E00E94E8
:1025100056178FE491E090939F0D80939E0D81E07C
:10252000DF91CF910895E091B30DF091B40D8081CA
:102530008A3029F082E08093B60D84E0089580917E
:10254000A40D9091A50D90939F0D80939E0D81E019
:102550000895E091B30DF091B40D80818A3029F097
:1025600082E08093B60D84E008958FE491E090932B
:10257000A50D8093A40D85E00895CF93DF930E946D
:10258000E70CEC018091B60D81112FC0C830D10548
:1025900010F08CE028C0E091B30DF091B40D808173
:1025A0008C3201F53196F093B40DE093B30D0E9497
:1025B000E70C2091B60D211118C021E030E00C2E5F
:1025C00001C0220F0A94EAF7009731F0019751F405
:1025D00081B1822B81B904C081B12095282321B912
:1025E00082E004C082E08093B60D84E0DF91CF9159
:1025F0000895CF93DF930E94E70CEC018091B60D14
:1026000081112FC0C830D10510F08CE028C0E091B6
:10261000B30DF091B40D80818C3201F53196F093B9
:10262000B40DE093B30D0E94E70C2091B60D21117B
:1026300018C021E030E00C2E01C0220F0A94EAF706
:10264000009731F0019751F482B1822B82B904C016
:1026500082B12095282322B982E004C082E08093D1
:10266000B60D84E0DF91CF9108950E944E1080E076
:1026700090E05AE0E091B30DF091B40D408120ED6F
:10268000240F2A30A0F4893929E1920788F4589F51
:102690009001599F300D1124842F90E0C097820F34
:1026A000931F3196F093B40DE093B30DE3CF0895EB
:1026B0008FEF9FEF0895CF93DF938FE491E0909396
:1026C000A50D8093A40D8EE99DE09093A80D8093B5
:1026D000A70D8CE69DE09093B00D8093AF0D86E33F
:1026E0009DE09093A30D8093A20DCAEBDDE068817D
:1026F000798187EE9BE00E948D036881798185E76F
:1027000093E00E94FB036881798180E098E00E9459
:102710008D03688179818AE693E00E94FB038881BA
:102720009981DF91CF910C94EC03C4E08EE9A82E3F
:102730008DE0B82ED9E00FE411E092E5E92E91E0AA
:10274000F92E2FE0922E31E3432E31E0532E4EE549
:10275000C42EC43009F050C06091BA0D7091BB0D09
:1027600081ED90E00E9456176091BA0D7091BB0DFB
:1027700083ED90E00E94561710929F0D10929E0DCF
:10278000B092A80DA092A70D6091BA0D7091BB0DEB
:102790008FE493E00E94FB03C0E02EC04C5F4093A7
:1027A000B70DFC013397F093B40DE093B30D318373
:1027B0002083329640830E94361090934E0180937E
:1027C0004D012091A40D3091A50D8217930709F0BA
:1027D0008CC0E091B30DF091B40D83818A3061F02B
:1027E000E0914D01F0914E012091B70D2111A1C052
:1027F000F0934E01E0934D011092B60D8091A60D1D
:10280000982F937061F08C7F8093A60D10939F0D8D
:1028100000939E0DF092B40DE092B30DDCC00E94C7
:10282000D80E0E945E108091A40D9091A50D029685
:102830009093B40D8093B30DE091B30DF091B40D6E
:1028400080818A3031F03196F093B40DE093B30D6E
:10285000F3CFE091A20DF091A30D3197A091B30DAC
:10286000B091B40D8C9180832091B30D3091B40D53
:102870008091A40D9091A50D02962817390739F083
:10288000215031093093B40D2093B30DE6CFF0936E
:10289000B40DE093B30D0E9435139093A10D809376
:1028A000A00D0E944E102091A00D3091A10D211578
:1028B000310509F480C02F3F8FEF380719F4D0930A
:1028C000B60D89C01092B70D8091B30D9091B40DE3
:1028D0004091B70DFC01E40FF11D50815A3009F40D
:1028E0005DCF4F5F4093B70DF3CFDC016D917C91CD
:1028F00011974091A00D5091A10D6417750709F033
:1029000068CF12964C911297FC01E40FF11D2E1B1B
:102910003F0BAF01420F531FE417F50719F0619108
:102920006D93FACF820F931F9093A50D8093A40D02
:1029300050CF6091A40D7091A50D8091B30D909131
:10294000B40D30E0861B970B2817390708F4C9012E
:10295000AB01480F591F9B012E1B3F0B1A0121157C
:10296000310549F0DB017E90BD01D1017E921D0150
:1029700021503109F4CF8E0F9F1FE817F907B1F0EE
:10298000A091B30DB091B40D2C9121932091B30D72
:102990003091B40D2F5F3F4F3093B40D2093B30DA2
:1029A0002091B70D21502093B70DE7CF5093A50D7F
:1029B0004093A40D19CF1092B50DE091A40DF091A4
:1029C000A50DCF0102969093B40D8093B30D828133
:1029D0008A3009F411CF8091B60D8111D5C00E94C3
:1029E0009210882349F06091BA0D7091BB0D82E579
:1029F00093E00E94FB03C5C01092B60D84ED95E0F4
:102A00000E94A70B90E08F32910508F07CC0FC017A
:102A1000EA57FF4F0C948E160E94E70C0E947E101E
:102A200087C00E94A91272C00E94F20781C00E9452
:102A300078126CC00E94970469C00E947A0466C034
:102A40000E94590A63C00E945E0A60C00E94630A25
:102A50005DC00E94910A5AC00E94931257C00E9402
:102A60000F1254C00E943B1251C00E9452064EC029
:102A70000E9465064BC00E949C059091B60D911175
:102A800045C083E004C00E945A0540C08CE00E940B
:102A9000BF053CC00E94631239C00E946A1236C052
:102AA0000E94AE0433C00E94C31030C00E94CF11F8
:102AB0002DC00E9413072AC00E940E0B27C00E943F
:102AC0003B0B24C08091A60D82608093A60D03C0AD
:102AD0000E94860B1BC00E94660B18C00E942A062B
:102AE00015C00E94A80612C00E9478060FC00E945E
:102AF00046060CC00E94BD1209C00E94F91206C011
:102B00000E947A1103C09092B60D3BC08430C9F187
:102B10008530C9F1863009F462CF8330F9F40E9420
:102B20004E10E091B30DF091B40D80818A3371F0B5
:102B3000E0919E0DF0919F0D309719F18281E80F81
:102B4000F11DF0939F0DE0939E0D0AC03196F09316
:102B5000B40DE093B30D0E944E1041CF823041F38B
:102B600080919E0D90919F0D2091A40D3091A50D07
:102B70008217930731F003969093B40D8093B30DB1
:102B80002ECFC4E001C0C5E08091B60D882309F4C2
:102B9000E0CD83E00E94690980E00E947E09809177
:102BA000B60D90E0FC013197E531F10508F07BC0EE
:102BB000EB54FF4F6091BA0D7091BB0D0C948E16C3
:102BC0008EE293E06EC081E293E00E94D403809194
:102BD0009E0D90919F0D892BE9F05F924F920E947C
:102BE0008817E091B30DF091B40D70800F900F90A5
:102BF000BAE07B12C0826091BA0D7091BB0D8091DA
:102C00009E0D90919F0D0E940504E091B30DF091EF
:102C1000B40D70828091BA0D9091BB0D0E94EC03AF
:102C200042C082E193E03DC08DEF92E03AC089E47A
:102C300093E002C082E493E00E94FB036091BA0D2E
:102C40007091BB0D89EE92E02CC087ED92E029C017
:102C500082EC92E026C08EEA92E023C08CE992E0FA
:102C600020C08BE892E01DC088E792E01AC08AE697
:102C700092E017C089E592E014C089E492E011C0A7
:102C800085E392E00EC08FE192E00BC088E092E015
:102C900008C08BEF91E005C083EE91E002C08EEC9E
:102CA00091E00E94FB038CE40E94690980E00E948D
:102CB0007E094FCD0E94F0088CE40E94690980E0F3
:102CC0000E947E096091BA0D7091BB0D80E893E07F
:102CD0000E94FB030E94F2071092B00087E08093ED
:102CE000B100109270000E945B130E94951380E067
:102CF00090E0089597FB072E16F4009407D077FD17
:102D000009D00E94941607FC05D03EF49095819559
:102D10009F4F0895709561957F4F0895EE0FFF1FA7
:102D20000590F491E02D0994AA1BBB1B51E107C04B
:102D3000AA1FBB1FA617B70710F0A61BB70B881F4B
:102D4000991F5A95A9F780959095BC01CD010895DA
:102D50008F929F92AF92BF92CF92DF92EF92FF92AB
:102D6000CF93DF93EC01688179818A819B81611522
:102D700071058105910521F464E279ED8BE597E019
:102D80002DE133EF41E050E00E94FC1949015A0166
:102D90009B01AC01A7EAB1E40E941B1A6B017C0104
:102DA000ACEEB4EFA50194010E94291AC60ED71EFD
:102DB000E81EF91EF7FE06C081E0C81AD108E10836
:102DC00080E8F80AC882D982EA82FB82C6019F772E
:102DD000DF91CF91FF90EF90DF90CF90BF90AF90B9
:102DE0009F908F9008950E94A81608958AE291E01E
:102DF0000E94A8160895A0E0B0E080932A01909365
:102E00002B01A0932C01B0932D010895CF93DF9354
:102E1000EC012B8120FF33C026FF0AC02F7B2B83C0
:102E20008E819F8101969F838E838A8190E029C045
:102E300022FF0FC0E881F9818081992787FD909555
:102E4000009719F420622B831AC03196F983E88326
:102E50000EC0EA85FB85099597FF09C02B81019675
:102E600011F480E101C080E2822B8B8308C02E81A7
:102E70003F812F5F3F4F3F832E83992702C08FEF03
:102E80009FEFDF91CF910895A0E0B0E0EAE4F7E191
:102E90000C943E1AAE01475F5F4F6F8178858D813C
:102EA0009E810E949C17E2E00C945A1A0F931F9384
:102EB000CF93DF93182F092FEB018B8181FD03C086
:102EC0008FEF9FEF20C082FF10C04E815F812C8169
:102ED0003D81421753077CF4E881F9819F012F5F00
:102EE0003F4F39832883108306C0E885F985812FF9
:102EF0000995892B29F72E813F812F5F3F4F3F8313
:102F00002E83812F902FDF91CF911F910F910895E4
:102F1000A0E0B0E0EEE8F7E10C943E1AFE01359631
:102F200061917191AF018091BA0D9091BB0D0E949A
:102F30009C17E2E00C945A1AACE0B0E0E2EAF7E148
:102F40000C942E1A7C016B018A01FC0117821682F7
:102F5000838181FFBDC1CE0101964C01F7019381B0
:102F6000F60193FD859193FF81916F01882309F408
:102F7000ABC1853239F493FD859193FF81916F0147
:102F8000853229F4B70190E00E945617E7CF512C03
:102F9000312C20E02032A0F48B3269F030F4803202
:102FA00059F0833269F420612CC08D3239F08033BE
:102FB00039F4216026C02260246023C0286021C02B
:102FC00027FD27C030ED380F3A3078F426FF06C0D1
:102FD000FAE05F9E300D1124532E13C08AE0389E14
:102FE000300D1124332E20620CC08E3221F426FDC8
:102FF0006BC1206406C08C3611F4206802C088368C
:1030000041F4F60193FD859193FF81916F01811148
:10301000C1CF982F9F7D9554933028F40C5F1F4F9C
:10302000FFE3F9830DC0833631F0833771F08335C8
:1030300009F05BC022C0F801808189830E5F1F4FB9
:1030400044244394512C540115C03801F2E06F0E12
:10305000711CF801A080B18026FF03C0652D70E0CF
:1030600002C06FEF7FEFC5012C870E9493192C01DE
:1030700083012C852F77222E17C03801F2E06F0EC6
:10308000711CF801A080B18026FF03C0652D70E09F
:1030900002C06FEF7FEFC5012C870E9488192C01B9
:1030A0002C852068222E830123FC1BC0832D90E0F9
:1030B00048165906B0F4B70180E290E00E94561716
:1030C0003A94F4CFF50127FC859127FE81915F01A9
:1030D000B70190E00E94561731103A94F1E04F1A70
:1030E00051084114510471F7E5C0843611F0893656
:1030F00039F5F80127FF07C06081718182819381D2
:103100000C5F1F4F08C060817181882777FD809513
:10311000982F0E5F1F4F2F76B22E97FF09C0909504
:103120008095709561957F4F8F4F9F4F2068B22E8D
:103130002AE030E0A4010E949E19A82EA81844C0DD
:10314000853729F42F7EB22E2AE030E025C0F22FF9
:10315000F97FBF2E8F36C1F018F4883579F0B4C0EE
:10316000803719F0883721F0AFC02F2F2061B22EA1
:10317000B4FE0DC08B2D8460B82E09C024FF0AC098
:103180009F2F9660B92E06C028E030E005C020E1F0
:1031900030E002C020E132E0F801B7FE07C06081F4
:1031A0007181828193810C5F1F4F06C060817181A4
:1031B00080E090E00E5F1F4FA4010E949E19A82E90
:1031C000A818FB2DFF77BF2EB6FE0BC02B2D2E7F30
:1031D000A51450F4B4FE0AC0B2FC08C02B2D2E7EFC
:1031E00005C07A2C2B2D03C07A2C01C0752C24FF2E
:1031F0000DC0FE01EA0DF11D8081803311F4297E9E
:1032000009C022FF06C07394739404C0822F86788D
:1032100009F0739423FD13C020FF06C05A2C7314C9
:1032200018F4530C5718732C731468F4B70180E228
:1032300090E02C870E94561773942C85F5CF731459
:1032400010F4371801C0312C24FF12C0B70180E3FD
:1032500090E02C870E9456172C8522FF17C021FF73
:1032600003C088E590E002C088E790E0B7010CC099
:10327000822F867859F021FD02C080E201C08BE2E6
:1032800027FD8DE2B70190E00E945617A51438F48F
:10329000B70180E390E00E9456175A94F7CFAA94A2
:1032A000F401EA0DF11D8081B70190E00E945617EC
:1032B000A110F5CF332009F451CEB70180E290E0A0
:1032C0000E9456173A94F6CFF7018681978102C083
:1032D0008FEF9FEF2C96E2E10C944A1AF999FECFFA
:1032E00092BD81BDF89A992780B50895262FF99946
:1032F000FECF92BD81BDF89A019700B4021639F055
:103300001FBA20BD0FB6F894FA9AF99A0FBE089525
:10331000FC010590615070400110D8F780959095A0
:103320008E0F9F1F0895FC016150704001900110A5
:10333000D8F7809590958E0F9F1F0895FA01AA27C0
:10334000283051F1203181F1E8946F936E7F6E5FE8
:103350007F4F8F4F9F4FAF4FB1E03ED0B4E03CD096
:10336000670F781F891F9A1FA11D680F791F8A1F79
:10337000911DA11D6A0F711D811D911DA11D20D0E0
:1033800009F468943F912AE0269F11243019305D9A
:103390003193DEF6CF010895462F4770405D41938B
:1033A000B3E00FD0C9F7F6CF462F4F70405D4A33D8
:1033B00018F0495D31FD4052419302D0A9F7EACFA0
:1033C000B4E0A6959795879577956795BA95C9F7CF
:1033D00000976105710508959B01AC010A2E0694C2
:1033E0005795479537952795BA95C9F7620F731F7B
:1033F000841F951FA01D0895052E97FB1EF40094B1
:103400000E94131A57FD07D00E94651A07FC03D0CB
:103410004EF40C94131A50954095309521953F4FDA
:103420004F4F5F4F089590958095709561957F4FB0
:103430008F4F9F4F08950E94871AA59F900DB49FAC
:10344000900DA49F800D911D11240895B7FF0C9439
:103450001B1A0E941B1A821B930B08952F923F92F6
:103460004F925F926F927F928F929F92AF92BF9294
:10347000CF92DF92EF92FF920F931F93CF93DF9340
:10348000CDB7DEB7CA1BDB0B0FB6F894DEBF0FBE9D
:10349000CDBF09942A88398848885F846E847D84EA
:1034A0008C849B84AA84B984C884DF80EE80FD80EC
:1034B0000C811B81AA81B981CE0FD11D0FB6F89462
:1034C000DEBF0FBECDBFED010895A1E21A2EAA1BEB
:1034D000BB1BFD010DC0AA1FBB1FEE1FFF1FA217C4
:1034E000B307E407F50720F0A21BB30BE40BF50BC1
:1034F000661F771F881F991F1A9469F7609570954A
:10350000809590959B01AC01BD01CF010895A29FCC
:10351000B001B39FC001A39F700D811D1124911DA7
:10352000B29F700D811D1124911D0895F894FFCF55
:1035300000000003000000009607A707000000003D
:103540000003000000006107720700000000000394
:1035500000000000B6077A070000010000002564A3
:0635600000202D2D2000CB
:00000001FF
